:020000040800F2
:100000009C130020DD0200083D030008B71900081A
:100010003D0300083D0300083D0300080000000008
:100020000000000000000000000000003D03000888
:100030003D030008000000007502000811050008DB
:100040003D0300083D0300083D0300083D03000890
:100050003D0300083D0300083D0300083D03000880
:100060003D0300083D0300083D0300083D03000870
:100070003D0300083D0300083D0300083D03000860
:100080003D0300083D0300083D0300080000000098
:100090000000000000000000000000003D03000818
:1000A0003D0300083D0300083D0300083D03000830
:1000B0003D0300083D0300083D0300083D03000820
:1000C0003D0300083D0300083D0300083D03000810
:1000D0003D0300083D0300083D0300083D03000800
:1000E0003D0300083D0300083D0300080000000038
:1000F0000000000000000000000000000000000000
:1001000000000000000000000000000000000000EF
:1001100000000000000000003D0300083D0300084F
:100120005FF808F180B582B000AF7860144B1B789F
:100130005A1CD1B2124A11701A467B68D9B2114BBF
:1001400099540F4B1B781A460E4B002199540C4BB7
:100150001B7801330F2B05D87B680A2B02D07B68F4
:10016000002B0AD1064B00221A70064B00221946BA
:10017000042001F017FC0346002B0837BD4680BD64
:10018000540400204404002080B584B000AF78609F
:100190000023FB60204B1B78002B37D11F4B1B78B3
:1001A000002B35D17B68002B33D000F03FF8F8608E
:1001B0001B4B1B6893F83430FB72FB7AFA7A1949AF
:1001C000895C174A126892F83520D243D2B20A40AD
:1001D000D1B2144AD154FB7A124AD35C002B0BD112
:1001E0000F4B1B6893F83630DB43DAB20E4B1B78AB
:1001F0001340DAB20C4B1A70094B1B687A68DA624A
:10020000F86800F017F801F023FA02E000BF00E000
:1002100000BF1037BD4680BDE00A00207C090020E9
:10022000E40A0020D80A0020D40A0020EFF310804E
:1002300072B6704780F3108870471F48FF21017025
:10024000002080F309881D48016881F308881C4854
:10025000012101701B484FF08051016062B6FEE73A
:1002600018484FF080510160704716484FF0805198
:100270000160704772B6EFF3098028B1203880E83A
:10028000F00F11490968086000B5104880475DF813
:1002900004EB0F480F490A7802700B480E490A68B0
:1002A0000260106890E8F00F203080F309884EF06B
:1002B000040E62B67047000022ED00E058040020F2
:1002C0007E09002004ED00E0E40A0020E1040008BB
:1002D000D809002084090020CC0A002080B582B013
:1002E00000AF114B7B60114B3B6007E03B681A1D70
:1002F0003A607A68111D796012681A603B680C4A8E
:100300009342F3D30B480C494FF000028842B8BF28
:1003100040F8042BFADB00F0A7F900F087FA00BFE1
:100320000837BD4680BD00BF9E20000800000020A9
:100330004404002044040020A00F002080B400AF3B
:10034000FEE700BF80B483B000AF0C4B3B6080235E
:100350007B6007E07B68013B7B603B681A1D3A606D
:1003600000221A607B68002BF4D1054B054A1A6005
:1003700000BF0C37BD4680BC704700BF5C04002046
:10038000580400205806002080B400AF00BFBD46CE
:1003900080BC704780B582B000AF7860786800F0AC
:1003A0000BFA00BF0837BD4680BD00BF80B582B0E4
:1003B00000AF7860786800F009FA00BF0837BD46E2
:1003C00080BD00BF80B500AF00F00AFA00BF80BD5D
:1003D00080B582B000AF7860786800F007FA00BF9F
:1003E0000837BD4680BD00BF80B487B000AFF8605D
:1003F000B9607A607B807B687B617B694FF080723B
:100400001A607B69043B7B61FA687B691A607B69CF
:10041000043B7B61314A7B691A607B69043B7B61E9
:100420007B694FF012321A607B69043B7B617B6908
:100430004FF003321A607B69043B7B617B694FF0AC
:1004400002321A607B69043B7B617B694FF00132A9
:100450001A607B69043B7B61BA687B691A607B69BF
:10046000043B7B617B694FF011321A607B69043B6E
:100470007B617B694FF010321A607B69043B7B61C2
:100480007B694FF009321A607B69043B7B617B69B1
:100490004FF008321A607B69043B7B617B694FF047
:1004A00007321A607B69043B7B617B694FF006323F
:1004B0001A607B69043B7B617B694FF005321A60EF
:1004C0007B69043B7B617B694FF004321A607B6976
:1004D00018461C37BD4680BC704700BF251E00086B
:1004E00080B500AF00F08CF900BF80BD80B582B050
:1004F00000AF7860786800F089F900BF0837BD4622
:1005000080BD00BF80B500AF00F08AF900BF80BD9C
:1005100080B582B000AFFFF789FE7860084B1B788A
:100520000133DAB2064B1A707868FFF783FE00F0E9
:1005300087FE00F00BFE00BF0837BD4680BD00BF40
:10054000E00A002080B483B000AF78600B4A7B687B
:10055000013B13600A4BFF221A700A4A094B1B68C1
:1005600043F005031360074A064B1B6843F0020380
:10057000136000BF0C37BD4680BC704714E000E03C
:1005800023ED00E010E000E080B584B000AF502122
:100590001B4801F045F80023FB8118E0FB8901337B
:1005A000BB81FB891B01164A1344BB60BB891B013D
:1005B000134A13447B60BB6800221A70BB687A68D8
:1005C0005A60BB680F4ADA60FB890133FB81FB8903
:1005D000032BE3D9FB891B01094A1344BB60BB68A9
:1005E00000221A70BB6800225A60BB68054ADA60B4
:1005F000054B034A1A6000BF1037BD4680BD00BFDF
:1006000088090020841E0008480F002080B487B0AD
:1006100000AF78607B685B687B617B681B683B61CF
:100620007B69002B0CD17B68DB68FB60FB683A6957
:100630005A603B69002B0CD03B6900225A6008E0ED
:100640007B693A691A603B69002B02D03B697A6981
:100650005A607B689B68BB60BB6800225A6200BF1F
:100660001C37BD4680BC704780B500AF174A174B9A
:100670001B6843F0010313601449144B5A68144B70
:1006800013404B60114A114B1B6823F0847323F411
:10069000803313600D4A0D4B1B6823F480231360D5
:1006A0000A4A0A4B5B6823F4FE035360074B4FF47E
:1006B0001F029A60054B0022DA6200F00DF8054B2C
:1006C0004FF000629A6000BF80BD00BF0010024082
:1006D0000000FFF800ED00E080B500AF00F002F888
:1006E00000BF80BD80B483B000AF00237B600023D7
:1006F0003B60304A2F4B1B6843F4803313602D4B13
:100700001B6803F400333B607B6801337B603B680C
:10071000002B03D17B68B3F5A06FF0D1254B1B688C
:1007200003F40033002B02D001233B6001E00023DF
:100730003B603B68012B37D11E4A1E4B5B68536000
:100740001C4A1C4B5B6853601A4A1A4B5B68536027
:10075000184A184B5B6823F47C135360154A154BF9
:100760005B6843F498135360124A124B1B6843F0C2
:100770008073136000BF0F4B1B6803F00073002BE6
:10078000F9D00C4A0B4B5B6823F003035360094A12
:10079000084B5B6843F00203536000BF054B5B6886
:1007A00003F00C03082BF9D100BF0C37BD4680BC09
:1007B000704700BF0010024080B483B000AF786083
:1007C00000BF0C37BD4680BC704700BF80B483B00B
:1007D00000AF786000BF0C37BD4680BC704700BFDB
:1007E00080B400AF00BFBD4680BC704780B483B00A
:1007F00000AF786000BF0C37BD4680BC704700BFBB
:1008000080B400AF00BFBD4680BC704780B483B0E9
:1008100000AF786000BF0C37BD4680BC704700BF9A
:1008200080B400AF00BFBD4680BC704780B582B0C9
:1008300000AF00F071FC0023104A0021104801F0C5
:1008400001F90346FB71FB79002B02D00D4800F043
:100850004BFB00F0CDFC01230B4A00210B4801F0BB
:10086000F1F80346FB71FB79002B02D0084800F039
:100870003BFB084800F038FBFBE700BFE80700201F
:1008800099080008881E000878090020CD08000893
:10089000A41E0008C01E000880B582B000AF7860BA
:1008A000074B1B68074AA2FB03235B091846FFF7A7
:1008B00049FE054800F018FB6420FFF765FCF8E7E7
:1008C000000000201F85EB51CC1E000880B582B0CF
:1008D00000AF7860074B1B68074AA2FB03235B0944
:1008E0001846FFF72FFE054800F0FEFA6420FFF7D8
:1008F0004BFCF8E7000000201F85EB51DC1E0008D0
:1009000080B582B000AF0346FB71FB791846FFF754
:1009100009FC00BF0837BD4680BD00BF80B483B06E
:1009200000AF78600B46FB707B68FA781A70012381
:1009300018460C37BD4680BC704700BF80B485B0F8
:1009400000AF786039600023FB600AE07B685A1CC6
:100950007A603A68511C396012781A70FB6801336A
:10096000FB603B681B78002BF0D1FB6818461437FE
:10097000BD4680BC704700BF80B586B000AFF86050
:100980007A603B600B46FB7200237B617B68013B16
:100990007B603B68092B1DD93B681D4AA2FB0323E2
:1009A000DB08F97A7A68F868FFF7E6FF78617B6917
:1009B000FA681344FB6010E0FB7A1946F868FFF709
:1009C000ADFFFB680133FB607B6901337B617B68B2
:1009D000013B7B607B68002BEEDC39680C4BA3FB92
:1009E0000123DA0813469B0013445B00CA1AD3B2F2
:1009F0003033DBB21946F868FFF790FF02467B6997
:100A000013447B617B6918461837BD4680BD00BF23
:100A1000CDCCCCCC80B586B000AFF8607A603B60BE
:100A20000B46FB7200237B613B68002B03DA3B68BB
:100A30005B423B6101E03B683B617B68013B7B6063
:100A40003B69092B1FD93B68002B0CDA3B692E4A06
:100A5000A2FB0323DB085B42F97A7A68F868FFF7A8
:100A6000D9FF78610AE03B69274AA2FB0323DB0830
:100A7000F97A7A68F868FFF7CDFF78617B69FA68E0
:100A80001344FB6025E03B68002B11DA7B68013BD7
:100A90007B600DE0FB7A1946F868FFF73FFFFB68C3
:100AA0000133FB607B6901337B617B68013B7B60C9
:100AB0007B68002BEEDC3B68002B0ADA2D21F868FE
:100AC000FFF72CFF02467B6913447B61FB6801330F
:100AD000FB6039690C4BA3FB0123DA0813469B002A
:100AE00013445B00CA1AD3B23033DBB21946F8683C
:100AF000FFF714FF02467B6913447B617B6918464C
:100B00001837BD4680BD00BFCDCCCCCC80B588B0F9
:100B100002AFF8607A601A460B46FB721346BB724E
:100B200000237B617B68013B7B603B6A1B09002BD8
:100B300020D03B6A1B09BA7AF97A009313467A6887
:100B4000F868FFF7E3FF02467B6913447B617B692A
:100B5000FA681344FB6010E0FB7A1946F868FFF767
:100B6000DDFEFB680133FB607B6901337B617B68E1
:100B7000013B7B607B68002BEEDC3B6A03F00F03DC
:100B8000092B0BD83B6ADBB203F00F03DBB2303327
:100B9000DBB21946F868FFF7C1FE19E0BB7A002BFB
:100BA0000BD03B6ADBB203F00F03DBB23733DBB2AF
:100BB0001946F868FFF7B2FE0AE03B6ADBB203F0C1
:100BC0000F03DBB25733DBB21946F868FFF7A6FE16
:100BD0007B6901337B617B6918461837BD4680BD50
:100BE00080B58AB002AFF860B9607A603B600023DC
:100BF000BB6100237B61FB68002B00F0FC80FB687D
:100C000000221A70F7E07B681B78252B0BD0FB685D
:100C10005A1CFA607A68511C796012781A707B69E4
:100C200001337B61E7E07B6801331B78252B0BD117
:100C3000FB685A1CFA6025221A707B6802337B60BD
:100C40007B6901337B61D6E02023FB770023BB77F0
:100C50007B6801337B607B681B78302B14D1302399
:100C6000FB777B6801337B600EE0BB7F1A46920006
:100C700013445B00DAB27B681B781344DBB2303B71
:100C8000BB777B6801337B607B681B782F2B03D994
:100C90007B681B78392BE8D9BA7F7B6913441A46E5
:100CA000BB689A4205D9BB68DAB27B69DBB2D31A5A
:100CB000BB777B681B78583B202B00F28E8001A20B
:100CC00052F823F0950D0008DB0D0008DB0D00083D
:100CD000DB0D0008DB0D0008DB0D0008DB0D000854
:100CE000DB0D0008DB0D0008DB0D0008DB0D000844
:100CF000C50D0008490D0008DB0D0008DB0D0008DC
:100D0000DB0D0008DB0D0008490D0008DB0D0008B5
:100D1000DB0D0008DB0D0008DB0D0008DB0D000813
:100D2000DB0D0008DB0D0008DB0D0008DB0D000803
:100D3000B10D0008DB0D0008610D0008DB0D000897
:100D4000DB0D0008790D0008B87F3B681A1D3A607A
:100D50001B68F97F0246F868FFF75CFEB8613FE068
:100D6000B87F3B681A1D3A601B68F97F0246F86835
:100D7000FFF702FEB86133E0B87F3B681A1D3A60A6
:100D80001B68F97F009300230246F868FFF7BEFE58
:100D9000B86125E0B87F3B681A1D3A601B68F97F8F
:100DA000009301230246F868FFF7B0FEB86117E030
:100DB0003B681A1D3A601B681946F868FFF7BEFDCC
:100DC000B8610DE03B681A1D3A601B68DBB219463A
:100DD000F868FFF7A3FDB86102E04FF0FF3325E0AC
:100DE0007B6801337B60BB69FA681344FB607A69F6
:100DF000BB6913447B617B681B78002B04D07A6944
:100E0000BB689A42FFF4FFAE7A69BB689A4203D28C
:100E1000FB6800221A7008E0FB68013BFB60FB687E
:100E200000221A707B69013B7B617B691846203781
:100E3000BD4680BD80B584B000AFF860B9607A600F
:100E40007B68BA686421F868FFF7CAFE0346184653
:100E50001037BD4680BD00BFB0B5A6B000AFF8608A
:100E6000B9607A60144B07F110041D460FCD0FC412
:100E70000FCD0FC42B68236007F134037A68B9687B
:100E80001846FFF7D7FF0346632B09DD0B4B1B68A2
:100E9000DA6807F110031146184600F059F8FEE72A
:100EA00007F13403F968184600F052F80346184673
:100EB0009837BD46B0BD00BFEC1E000840040020BE
:100EC00080B582B000AF78603960064B1B689B68C4
:100ED0003A6879681846FFF7BFFF03461846083797
:100EE000BD4680BD400400200FB480B582B000AF85
:100EF00007F114033B6039683869FFF7E1FF786058
:100F00007B6818460837BD46BDE8804004B070478E
:100F100080B582B000AF786039600C4B1B689A686E
:100F20003B689A4205D0094B1B68DA683B689A42D5
:100F300006D17B68DBB21846FFF7E2FC7B6801E074
:100F40004FF0FF3318460837BD4680BD40040020EF
:100F500080B584B000AF786039600023FB6012E098
:100F60007B681B7839681846FFF7D2FF0346B3F158
:100F7000FF3F02D14FF0FF330AE0FB680133FB6013
:100F80007B6801337B607B681B78002BE8D1FB68B2
:100F900018461037BD4680BD80B483B000AF304BDB
:100FA0007B60304B7B60304B7B60304B7B60304BE9
:100FB0007B60304B7B60304B7B60304B7B60304BD9
:100FC0007B60304B7B60304B7B60304B7B60304BC9
:100FD0007B60304B7B60304B7B60304B7B60304BB9
:100FE0007B60304B7B60304B7B60304B7B60304BA9
:100FF0007B60304B7B60304B7B60304B7B60304B99
:101000007B60304B7B60304B7B60304B7B60304B88
:101010007B60304B7B60304B7B60304B7B60304B78
:101020007B60304B7B60304B7B60304B7B60304B68
:101030007B60304B7B60304B7B60304B7B60304B58
:101040007B60304B7B60304B7B60304B7B60304B48
:101050007B60304B7B6000BF0C37BD4680BC704767
:10106000101F0008141F00081A1F00081C1F00088A
:10107000181F00081E1F0008201F0008221F00085C
:10108000241F0008261F0008281F00082A1F000828
:101090002C1F00082E1F0008301F0008321F0008F8
:1010A000341F0008361F0008381F00083A1F0008C8
:1010B0003C1F00083E1F0008401F0008421F000898
:1010C000441F0008461F0008481F00084A1F000868
:1010D0004C1F00084E1F0008501F0008521F000838
:1010E000541F0008561F0008581F00085A1F000808
:1010F0005C1F00085E1F0008601F0008621F0008D8
:10110000641F0008661F0008681F00086A1F0008A7
:101110006C1F0008801F000880B500AFFFF712F9B0
:1011200000F0ACF900F0D8F900F02CFA00F05CF90E
:10113000FFF72AFA00F0F6FB00F048FC00F0FCF99B
:10114000FFF722F9FFF728FF00BF80BD80B582B00E
:1011500000AF00237B601E4B1B78012B33D1FFF7C0
:1011600065F878601B4B1B78002B05D0194B1B785A
:10117000013BDAB2174B1A70164B1B78002B1FD1AC
:10118000154B1B78002B1BD100F0A4FA134B1B78D6
:101190001A46134B53F82230124A13600F4B1A7839
:1011A000114B1B789A420BD00E4B1B689A6B013285
:1011B0009A630E4B1B6801330C4A1360FFF755F816
:1011C0007868FFF737F800BF0837BD4680BD00BF1D
:1011D0007E090020E00A00207C090020840900200C
:1011E0004C0F0020CC0A0020D80900205C0A002007
:1011F00080B500AF0C4B1B78002B13D100F06AFABE
:101200000A4B1A780A4B1A70084B1B781A46094B7E
:1012100053F82230084A1360074B1B68074A1360D3
:10122000FFF70BF800BF80BD7E0900208409002075
:10123000D80900204C0F0020CC0A0020E40A00202E
:1012400080B584B000AF00237B60FFF75BF9FEF749
:10125000EDFF7860434B1B680133424A13607868A6
:10126000FEF7E8FF404B1B78012B77D13F4B1B78F3
:10127000012B06D0022B07D0002B0BD10123FB72D0
:101280000EE00023FB720BE00123FB72374B0122BF
:101290001A7005E00123FB72344B00221A7000BF64
:1012A000FB7A002B59D0324B1B68FB604FE0FEF7F6
:1012B000BDFF7860FB68DB6A002B42D0FB68DB6A0D
:1012C0005A1EFB68DA62FB68DB6A002B39D1FB68C7
:1012D00093F8303003F03703002B0DD0FB6893F800
:1012E000303023F03703DAB2FB6883F83020FB6834
:1012F000012283F8312003E0FB68002283F83120CB
:10130000FB6893F8303003F00803002B19D1FB6819
:1013100093F83620174B1B781343DAB2154B1A702B
:10132000FB6893F834301946FB6893F834301A465A
:10133000114B9A5CFB6893F835301343DAB20E4BCD
:101340005A54FB685B69FB607868FEF773FFFB68C3
:1013500093F83230142BAAD100E000BF1037BD46FD
:1013600080BD00BFE80A00207E090020580A002046
:10137000DC090020D40A0020D80A002080B400AF85
:1013800000BFBD4680BC704780B485B000AF7860B8
:1013900039607B6893F83430FB73FB7BFA7B3968E8
:1013A0000A44D17A7A6892F83520D243D2B20A4000
:1013B000D1B23A6813440A46DA72FB7B3A681344A6
:1013C000DB7A002B0AD13B689A7A7B6893F8363037
:1013D000DB43DBB21340DAB23B689A7200BF1437CA
:1013E000BD4680BC704700BF80B584B000AF6421AB
:1013F0001F4800F015F90023FB811EE0FB89013333
:10140000BB81FA8913469B0013449B00184A13447E
:10141000BB60BA8913469B0013449B00144A1344D3
:101420007B60BB6800221A70BB687A685A60BB6830
:10143000104A1A61FB890133FB81FB89032BDDD93B
:10144000FA8913469B0013449B00094A1344BB606E
:10145000BB6800221A70BB6800225A60BB68054A4C
:101460001A61054B024A1A6000BF1037BD4680BDA5
:10147000EC0C002084200008DC0A002080B400AFBF
:101480000D4B00221A600D4B00221A700C4B0022EB
:101490001A700C4B00221A700B4B00221A700B4B67
:1014A00000221A600A4B00221A600A4B00221A70AE
:1014B00000BFBD4680BC7047E80A0020E00A00205B
:1014C0007C090020640A00207E0900205C0A0020BC
:1014D000800900207D09002080B483B000AF104B4C
:1014E00000221A700023FB7106E0FB790D4A0021EF
:1014F000D154FB790133FB71FB79022BF5D90A4BEF
:1015000000221A70094B00221A70094B00221A603F
:10151000084B00221A6000BF0C37BD4680BC7047E4
:10152000D40A0020D80A0020D8090020840900200D
:10153000CC0A0020E40A002080B588B006AF03235F
:10154000049300230393802302930A4B01934FF6E5
:10155000FF7300931423084A0021084800F0D0FAD2
:10156000FB1D1A460649142000F014FC00BF083782
:10157000BD4680BDEC0A0020E80C00201D170008C5
:101580008820000880B584B000AF4FF4FC711F487C
:1015900000F046F854211E4800F042F80023FB7387
:1015A00019E0FB7B0133BB73FB7B542202FB03F38B
:1015B000164A1344BB60BB7B542202FB03F3134A5D
:1015C00013447B60BB687A685A61BB68114ADA646D
:1015D000FB7B0133FB73FB7B042BE2D9FB7B5422A7
:1015E00002FB03F3094A1344BB60BB6800225A6143
:1015F000BB68084ADA64084B00221A60074B034AAA
:101600001A6000BF1037BD4680BD00BF500D0020DE
:101610004C0F002084200008DC090020600A002014
:1016200080B483B000AF78600B467B8007E07B68B6
:101630005A1C7A6000221A707B88013B7B807B8871
:10164000002BF4D100BF0C37BD4680BC704700BFF3
:1016500080B582B000AF00237B60FEF7E7FD7860C5
:10166000154B1B78002B1FD1144B1B78002B1BD163
:1016700000F030F8124B1B781A46124B53F8223008
:10168000114A13600E4B1A78104B1B789A420BD0FC
:101690000D4B1B689A6B01329A630D4B1B6801332B
:1016A0000B4A1360FEF7DCFD7868FEF7C3FD00BF50
:1016B0000837BD4680BD00BFE00A00207C0900203D
:1016C000840900204C0F0020CC0A0020D8090020FB
:1016D0005C0A002080B483B000AF0C4B1B781A4624
:1016E0000B4B9B5CFB71FB79DB00DAB2FB790949A0
:1016F000CB5C1946064B5B5C1344DAB2064B1A709E
:1017000000BF0C37BD4680BC704700BFD40A002024
:10171000841F0008D80A00208409002080B584B006
:1017200000AF78600023FB60FEF780FDF860054B9A
:101730001B680133034A1360F868FEF77BFDFEF770
:1017400041FEF1E78009002080B588B000AFB960A4
:101750007A601A460346FB731346BB810023BB61C4
:10176000FEF764FDB861684B1B687B617B69002BE9
:1017700000F0C2807B695B69634A1360B869FEF759
:1017800059FD7B69BA681A607B69FA7B83F832205D
:101790007B69002283F830207B69002283F83120A6
:1017A0007B690022DA627B69FA6A5A607B69BA6AED
:1017B000DA607B697A689A607B693A8E1A827B6903
:1017C000BA895A827B69002283F83720FB7BDB08C9
:1017D000DAB27B6983F83420FB7B03F00703DAB2CB
:1017E0007B6983F833207B6993F834301A460123F0
:1017F0009340DAB27B6983F836207B6993F8333003
:101800001A4601239340DAB27B6983F835207B695D
:101810000022DA617B6900225A627B6900221A6227
:101820007B6900229A637B6900221A647B6900222B
:10183000DA637B6900225A647B6900229A647B69BF
:10184000324ADA640023FB7708E0FA7F7B691432BE
:10185000002143F82210FB7F0133FB77FB7F002B35
:10186000F3D07869FEF742FEFEF7E0FCB861FB7B3F
:1018700027497A6941F82320B869FEF7DBFC7869CB
:10188000FEF788FDFEF7D2FCB861224B1A687B692F
:101890005A617B6900229A611E4B1B68002B03D0A2
:1018A0001C4B1B687A699A611A4A7B6913607B69D1
:1018B00093F83620184B1B781343DAB2164B1A7084
:1018C0007B6993F8343019467B6993F834301A46B3
:1018D000124B9A5C7B6993F835301343DAB20F4BA5
:1018E0005A540F4B1B780133DAB20D4B1A70B8699A
:1018F000FEF7A0FC002303E0B869FEF79BFC42233F
:1019000018462037BD4680BD600A002084200008AC
:101910004C0F0020DC090020D40A0020D80A002047
:10192000640A002080B582B000AF78211A48FFF722
:1019300077FE0023FB8017E0FA8813465B00134410
:10194000DB00154A13443B60FB885A1C13465B00BE
:101950001344DB00104A1A443B685A603B680F4A44
:101960005A61FB880133FB80FB88032BE4D9FA889A
:1019700013465B001344DB00074A13443B603B689B
:1019800000225A603B68054A5A61054B024A1A60B8
:1019900000BF0837BD4680BDE00900209820000840
:1019A000680A0020ABBE01E000207047002A00D08A
:1019B000106001207047069801884BF6AB62914297
:1019C00002D1043006907047FEE7000080B584B075
:1019D00000AF60211948FFF723FE0023FB8118E0C8
:1019E000FB890133BB81FA8913465B001344DB009A
:1019F000124A1344BB60BA8913465B001344DB00F0
:101A00000E4A13447B60BB687A681A60FB89013315
:101A1000FB81FB89022BE3D9FA8913465B0013444F
:101A2000DB00064A1344BB60BB6800221A60044B0B
:101A3000024A1A6000BF1037BD4680BD6C0A002004
:101A4000D00A002080B58CB004AFF860B9607A602D
:101A5000FB700023FB61FEF7E9FBF861254B1B7867
:101A6000002B04D0F869FEF7E5FB3C233DE0FB7852
:101A7000214A52F82330002B33D1FB781E4A012132
:101A800042F82310F869FEF7D5FB00237A68B9689D
:101A9000F868FEF7A9FCB861F878002302930023E8
:101AA00001930023009300230022B969FFF74CFE45
:101AB0000346FB75FB7D002B06D1104B1B78012BD9
:101AC0000DD1FFF7C5FD0AE0FEF7B0FBF861FB782A
:101AD000094A002142F82310F869FEF7ABFBFB7DB1
:101AE00003E0F869FEF7A6FB282318462037BD4619
:101AF00080BD00BFE00A00204C0F00207E090020BE
:101B000080B58CB004AFF860B9607A60FB700023D8
:101B1000FB61FEF78BFBF861284B1B78002B04D090
:101B2000F869FEF787FB3C2344E0FB78244A52F82F
:101B30002330002B3AD1FB78214A012142F82310AF
:101B4000F869FEF777FB3B8F1A46396BF86A00F0AD
:101B500077F93B8F7A68B968F868FEF745FCB86199
:101B60003A8DF8783B8F02937B6B01933B6B00932C
:101B70001346FA6AB969FFF7E7FD0346FB75FB7D7B
:101B8000002B06D10F4B1B78012B0DD1FFF760FD09
:101B90000AE0FEF74BFBF861FB78094A002142F8A6
:101BA0002310F869FEF746FBFB7D03E0F869FEF7BA
:101BB00041FB282318462037BD4680BDE00A00209F
:101BC0004C0F00207E09002080B586B000AF034690
:101BD000FB7100237B61644B1B78002B01D04023F9
:101BE000BDE0FB79142B01D13E23B8E0FEF71EFBCC
:101BF0007861FB79FF2B04D15C4B1B6893F8323082
:101C0000FB71FB795A4A52F823303B613B69002B48
:101C100004D17869FEF70EFB4323A0E03B69012B5A
:101C200004D17869FEF706FB3D2398E03B6993F801
:101C3000343019463B6993F834301A464D4B9A5C60
:101C40003B6993F83530DB43DBB21340DAB2494BE2
:101C50005A543B6993F834301A46464B9B5C002B30
:101C60000AD13B6993F83630DB43DAB2424B1B783A
:101C70001340DAB2404B1A703B69DB69002B05D088
:101C80003B69DB6919463869FFF77EFB3B695B6A94
:101C9000FB60FB68002B02D0F868FEF7B7FC3B69DD
:101CA0000022DA623B69002283F830203B6900227F
:101CB00083F83120314B1B78FF2B05D02F4B1B783D
:101CC0000133DAB22D4B1A707869FEF7B3FAFFF7D9
:101CD00055FBFEF7ABFA7861284B1B78002B05D03B
:101CE000264B1B78013BDAB2244B1A703869FEF799
:101CF0005DFB234B1B78013BDAB2214B1A70FB7959
:101D00001B4A002142F823103B699B69002B08D134
:101D10003B695B6900229A613B695B69194A136000
:101D200009E03B699B693A6952695A613B695B69A1
:101D30003A6992699A61144B1A683B695A61124A6E
:101D40003B6913603B69114ADA647869FEF772FAFD
:101D50000F4B1B78012B01D1FFF77AFC00231846AB
:101D60001837BD4680BD00BFE00A0020E40A00200D
:101D70004C0F0020D80A0020D40A00207C09002043
:101D8000640A0020DC090020600A00209C20000872
:101D90007E09002080B586B000AF0346B9607A6046
:101DA000FB7300237B611C4B1B78002B03D07B68EB
:101DB00012221A702CE0FEF739FA7861FB7BFF2BB8
:101DC00004D1164B1B6893F83230FB73FB7B144A2B
:101DD00052F823303B613B69002B06D17869FEF74E
:101DE00029FA7B6843221A7012E03B69012B06D165
:101DF0007869FEF71FFA7B6843221A7008E03B6996
:101E0000BA68DA647869FEF715FA7B6800221A70FE
:101E10001837BD4680BD00BFE00A0020E40A00205C
:101E20004C0F002080B500AF044B1B681846FEF72E
:101E3000CFFAFF20FFF7C8FE00BF80BDE40A0020F4
:101E400080B485B000AFF860B9601346FB80FB88B2
:101E500003F00103002B10D0FB8803F00203002BDA
:101E60000BD007E0BB68013BBB60FB681A1DFA6042
:101E700000221A60BB68002BF4D100BF1437BD46A6
:101E800080BC70473F0000005461736B3120637267
:101E9000656174696F6E206661696C65642E2E0AD7
:101EA0000D0000005461736B3220637265617469C8
:101EB0006F6E206661696C65642E2E0A0D0000004D
:101EC00048656C6C6F2E2E0A0D000000496E205480
:101ED00061736B312E2E0A0D00000000496E2054F4
:101EE00061736B322E2E0A0D00000000737464695A
:101EF0006F2E633A20696E637265617365204D4190
:101F0000585F535452494E475F53495A450A0D0092
:101F10000100000078563412010005000100140091
:101F20006400000001001000140002000500010020
:101F300014000100010005000100180078000100F4
:101F40000400010004001800030001000400010067
:101F50000100010080000100060001000000800077
:101F60000100010015005400640001001772000018
:101F70001000010008000A0000000000000000003E
:101F80000F06000000000100020001000300010034
:101F90000200010004000100020001000300010032
:101FA0000200010005000100020001000300010021
:101FB0000200010004000100020001000300010012
:101FC0000200010006000100020001000300010000
:101FD00002000100040001000200010003000100F2
:101FE00002000100050001000200010003000100E1
:101FF00002000100040001000200010003000100D2
:1020000002000100070001000200010003000100BE
:1020100002000100040001000200010003000100B1
:1020200002000100050001000200010003000100A0
:102030000200010004000100020001000300010091
:10204000020001000600010002000100030001007F
:102050000200010004000100020001000300010071
:102060000200010005000100020001000300010060
:102070000200010004000100020001000300010051
:10208000020001003F00000075432F4F532D4949C6
:0E2090002049646C650000003F0000003F0026
:10209E0000366E0100000000000000000102030483
:1020AE000607080900000000000000000000000004
:1020BE000100000000000000000000000000000011
:1020CE000000000000000000000000000000000002
:1020DE0000000000000000000000000000000000F2
:1020EE0000000000000000000000000000000000E2
:1020FE0000000000000000000000000000000000D2
:0424DE0018000020C2
:0400000508000000EF
:00000001FF
